{
    "_format": "hh-sol-artifact-1",
    "contractName": "Treasury",
    "sourceName": "contracts/Treasury.sol",
    "abi": [
        {
            "inputs": [
                {
                    "internalType": "address",
                    "name": "tokenAddress",
                    "type": "address"
                }
            ],
            "stateMutability": "nonpayable",
            "type": "constructor"
        },
        {
            "anonymous": false,
            "inputs": [
                {
                    "indexed": false,
                    "internalType": "address",
                    "name": "from",
                    "type": "address"
                },
                {
                    "indexed": false,
                    "internalType": "uint256",
                    "name": "value",
                    "type": "uint256"
                }
            ],
            "name": "Deposit",
            "type": "event"
        },
        {
            "anonymous": false,
            "inputs": [
                {
                    "indexed": true,
                    "internalType": "address",
                    "name": "previousOwner",
                    "type": "address"
                },
                {
                    "indexed": true,
                    "internalType": "address",
                    "name": "newOwner",
                    "type": "address"
                }
            ],
            "name": "OwnershipTransferred",
            "type": "event"
        },
        {
            "anonymous": false,
            "inputs": [
                {
                    "indexed": false,
                    "internalType": "address",
                    "name": "from",
                    "type": "address"
                },
                {
                    "indexed": false,
                    "internalType": "uint256",
                    "name": "value",
                    "type": "uint256"
                }
            ],
            "name": "Withdraw",
            "type": "event"
        },
        {
            "inputs": [],
            "name": "balancePool",
            "outputs": [
                {
                    "internalType": "uint256",
                    "name": "",
                    "type": "uint256"
                }
            ],
            "stateMutability": "view",
            "type": "function"
        },
        {
            "inputs": [
                {
                    "internalType": "uint8",
                    "name": "winningTeam",
                    "type": "uint8"
                }
            ],
            "name": "calculateRewardsOfTheRound",
            "outputs": [
                {
                    "internalType": "uint256",
                    "name": "",
                    "type": "uint256"
                }
            ],
            "stateMutability": "view",
            "type": "function"
        },
        {
            "inputs": [
                {
                    "internalType": "address",
                    "name": "player",
                    "type": "address"
                }
            ],
            "name": "checkPlayerPlayed",
            "outputs": [
                {
                    "internalType": "bool",
                    "name": "",
                    "type": "bool"
                }
            ],
            "stateMutability": "view",
            "type": "function"
        },
        {
            "inputs": [
                {
                    "internalType": "uint256",
                    "name": "amount",
                    "type": "uint256"
                },
                {
                    "internalType": "uint8",
                    "name": "teamNumber",
                    "type": "uint8"
                }
            ],
            "name": "depositTokens",
            "outputs": [],
            "stateMutability": "nonpayable",
            "type": "function"
        },
        {
            "inputs": [
                {
                    "internalType": "address",
                    "name": "_address",
                    "type": "address"
                }
            ],
            "name": "getAllowanceWithdraw",
            "outputs": [
                {
                    "internalType": "uint256",
                    "name": "",
                    "type": "uint256"
                }
            ],
            "stateMutability": "view",
            "type": "function"
        },
        {
            "inputs": [],
            "name": "owner",
            "outputs": [
                {
                    "internalType": "address",
                    "name": "",
                    "type": "address"
                }
            ],
            "stateMutability": "view",
            "type": "function"
        },
        {
            "inputs": [],
            "name": "playRound",
            "outputs": [],
            "stateMutability": "nonpayable",
            "type": "function"
        },
        {
            "inputs": [
                {
                    "internalType": "uint256",
                    "name": "",
                    "type": "uint256"
                }
            ],
            "name": "playerPlayed",
            "outputs": [
                {
                    "internalType": "address",
                    "name": "",
                    "type": "address"
                }
            ],
            "stateMutability": "view",
            "type": "function"
        },
        {
            "inputs": [
                {
                    "internalType": "uint8",
                    "name": "teamNumber",
                    "type": "uint8"
                }
            ],
            "name": "readMapping",
            "outputs": [
                {
                    "internalType": "address[]",
                    "name": "",
                    "type": "address[]"
                }
            ],
            "stateMutability": "view",
            "type": "function"
        },
        {
            "inputs": [],
            "name": "renounceOwnership",
            "outputs": [],
            "stateMutability": "nonpayable",
            "type": "function"
        },
        {
            "inputs": [
                {
                    "internalType": "uint8",
                    "name": "",
                    "type": "uint8"
                },
                {
                    "internalType": "uint256",
                    "name": "",
                    "type": "uint256"
                }
            ],
            "name": "teamMapping",
            "outputs": [
                {
                    "internalType": "address",
                    "name": "",
                    "type": "address"
                }
            ],
            "stateMutability": "view",
            "type": "function"
        },
        {
            "inputs": [],
            "name": "token",
            "outputs": [
                {
                    "internalType": "contract IERC20",
                    "name": "",
                    "type": "address"
                }
            ],
            "stateMutability": "view",
            "type": "function"
        },
        {
            "inputs": [
                {
                    "internalType": "address",
                    "name": "newOwner",
                    "type": "address"
                }
            ],
            "name": "transferOwnership",
            "outputs": [],
            "stateMutability": "nonpayable",
            "type": "function"
        },
        {
            "inputs": [],
            "name": "withdrawTokens",
            "outputs": [],
            "stateMutability": "nonpayable",
            "type": "function"
        }
    ],
    "bytecode": "0x60806040523480156200001157600080fd5b5060405162001ab738038062001ab78339818101604052810190620000379190620001d5565b620000576200004b6200009f60201b60201c565b620000a760201b60201c565b80600160006101000a81548173ffffffffffffffffffffffffffffffffffffffff021916908373ffffffffffffffffffffffffffffffffffffffff1602179055505062000207565b600033905090565b60008060009054906101000a900473ffffffffffffffffffffffffffffffffffffffff169050816000806101000a81548173ffffffffffffffffffffffffffffffffffffffff021916908373ffffffffffffffffffffffffffffffffffffffff1602179055508173ffffffffffffffffffffffffffffffffffffffff168173ffffffffffffffffffffffffffffffffffffffff167f8be0079c531659141344cd1fd0a4f28419497f9722a3daafe3b4186f6b6457e060405160405180910390a35050565b600080fd5b600073ffffffffffffffffffffffffffffffffffffffff82169050919050565b60006200019d8262000170565b9050919050565b620001af8162000190565b8114620001bb57600080fd5b50565b600081519050620001cf81620001a4565b92915050565b600060208284031215620001ee57620001ed6200016b565b5b6000620001fe84828501620001be565b91505092915050565b6118a080620002176000396000f3fe608060405234801561001057600080fd5b50600436106100ea5760003560e01c8063750422701161008c578063dd8d361211610066578063dd8d361214610225578063f2fde38b14610255578063fc0c546a14610271578063ff0629dc1461028f576100ea565b806375042270146101e15780638d8f2adb146101fd5780638da5cb5b14610207576100ea565b806345928273116100c85780634592827314610159578063698a835d1461018957806370eb843b146101b9578063715018a6146101d7576100ea565b80630cfe32a4146100ef57806310daca951461011f578063451c85061461014f575b600080fd5b61010960048036038101906101049190610f49565b6102bf565b6040516101169190610fca565b60405180910390f35b61013960048036038101906101349190611011565b61030d565b604051610146919061104d565b60405180910390f35b610157610356565b005b610173600480360381019061016e9190611011565b610386565b6040516101809190611083565b60405180910390f35b6101a3600480360381019061019e919061109e565b610434565b6040516101b0919061104d565b60405180910390f35b6101c161045b565b6040516101ce919061104d565b60405180910390f35b6101df610461565b005b6101fb60048036038101906101f691906110cb565b610475565b005b61020561078c565b005b61020f610974565b60405161021c9190610fca565b60405180910390f35b61023f600480360381019061023a919061110b565b61099d565b60405161024c9190610fca565b60405180910390f35b61026f600480360381019061026a9190611011565b6109dc565b005b610279610a5f565b6040516102869190611197565b60405180910390f35b6102a960048036038101906102a4919061109e565b610a85565b6040516102b69190611270565b60405180910390f35b600460205281600052604060002081815481106102db57600080fd5b906000526020600020016000915091509054906101000a900473ffffffffffffffffffffffffffffffffffffffff1681565b6000600560008373ffffffffffffffffffffffffffffffffffffffff1673ffffffffffffffffffffffffffffffffffffffff168152602001908152602001600020549050919050565b61035e610b2c565b6000610368610baa565b905061037381610c20565b61037b610ce4565b610383610d32565b50565b600080600090505b600380549050811015610429578273ffffffffffffffffffffffffffffffffffffffff16600382815481106103c6576103c5611292565b5b9060005260206000200160009054906101000a900473ffffffffffffffffffffffffffffffffffffffff1673ffffffffffffffffffffffffffffffffffffffff160361041657600191505061042f565b8080610421906112f0565b91505061038e565b50600090505b919050565b600061044761044283610a85565b610d42565b6002546104549190611367565b9050919050565b60025481565b610469610b2c565b6104736000610d4d565b565b670de0b6b3a764000082146104bf576040517f08c379a00000000000000000000000000000000000000000000000000000000081526004016104b6906113f5565b60405180910390fd5b81600160009054906101000a900473ffffffffffffffffffffffffffffffffffffffff1673ffffffffffffffffffffffffffffffffffffffff1663dd62ed3e33306040518363ffffffff1660e01b815260040161051d929190611415565b602060405180830381865afa15801561053a573d6000803e3d6000fd5b505050506040513d601f19601f8201168201806040525081019061055e9190611453565b101561059f576040517f08c379a0000000000000000000000000000000000000000000000000000000008152600401610596906114cc565b60405180910390fd5b600160009054906101000a900473ffffffffffffffffffffffffffffffffffffffff1673ffffffffffffffffffffffffffffffffffffffff166323b872dd3330856040518463ffffffff1660e01b81526004016105fe939291906114ec565b6020604051808303816000875af115801561061d573d6000803e3d6000fd5b505050506040513d601f19601f82011682018060405250810190610641919061154f565b610680576040517f08c379a0000000000000000000000000000000000000000000000000000000008152600401610677906115c8565b60405180910390fd5b61068933610386565b156106c9576040517f08c379a00000000000000000000000000000000000000000000000000000000081526004016106c09061165a565b60405180910390fd5b81600260008282546106db919061167a565b925050819055506106ec8133610e11565b6003339080600181540180825580915050600190039060005260206000200160009091909190916101000a81548173ffffffffffffffffffffffffffffffffffffffff021916908373ffffffffffffffffffffffffffffffffffffffff1602179055507fe1fffcc4923d04b559f4d29a8bfc6cda04eb5b0d3c460751c2402c5c5cc9109c33836040516107809291906116ae565b60405180910390a15050565b6000600560003373ffffffffffffffffffffffffffffffffffffffff1673ffffffffffffffffffffffffffffffffffffffff168152602001908152602001600020541161080e576040517f08c379a000000000000000000000000000000000000000000000000000000000815260040161080590611723565b60405180910390fd5b6000600560003373ffffffffffffffffffffffffffffffffffffffff1673ffffffffffffffffffffffffffffffffffffffff1681526020019081526020016000205490506000600560003373ffffffffffffffffffffffffffffffffffffffff1673ffffffffffffffffffffffffffffffffffffffff16815260200190815260200160002081905550600160009054906101000a900473ffffffffffffffffffffffffffffffffffffffff1673ffffffffffffffffffffffffffffffffffffffff1663a9059cbb33836040518363ffffffff1660e01b81526004016108f49291906116ae565b6020604051808303816000875af1158015610913573d6000803e3d6000fd5b505050506040513d601f19601f82011682018060405250810190610937919061154f565b507f884edad9ce6fa2440d8a54cc123490eb96d2768479d49ff9c7366125a942436433826040516109699291906116ae565b60405180910390a150565b60008060009054906101000a900473ffffffffffffffffffffffffffffffffffffffff16905090565b600381815481106109ad57600080fd5b906000526020600020016000915054906101000a900473ffffffffffffffffffffffffffffffffffffffff1681565b6109e4610b2c565b600073ffffffffffffffffffffffffffffffffffffffff168173ffffffffffffffffffffffffffffffffffffffff1603610a53576040517f08c379a0000000000000000000000000000000000000000000000000000000008152600401610a4a906117b5565b60405180910390fd5b610a5c81610d4d565b50565b600160009054906101000a900473ffffffffffffffffffffffffffffffffffffffff1681565b6060600460008360ff1660ff168152602001908152602001600020805480602002602001604051908101604052809291908181526020018280548015610b2057602002820191906000526020600020905b8160009054906101000a900473ffffffffffffffffffffffffffffffffffffffff1673ffffffffffffffffffffffffffffffffffffffff1681526020019060010190808311610ad6575b50505050509050919050565b610b34610e8f565b73ffffffffffffffffffffffffffffffffffffffff16610b52610974565b73ffffffffffffffffffffffffffffffffffffffff1614610ba8576040517f08c379a0000000000000000000000000000000000000000000000000000000008152600401610b9f90611821565b60405180910390fd5b565b6000610bb4610b2c565b6000610bc8610bc36001610a85565b610d42565b90506000610bde610bd96002610a85565b610d42565b90506000610bf4610bef6003610a85565b610d42565b905060006001905083831115610c0957600290505b83821115610c1657600390505b8094505050505090565b6000610c2b82610a85565b90506000610c3882610d42565b90506000610c4584610434565b905060005b82811015610cd5578160056000868481518110610c6a57610c69611292565b5b602002602001015173ffffffffffffffffffffffffffffffffffffffff1673ffffffffffffffffffffffffffffffffffffffff1681526020019081526020016000206000828254610cbb919061167a565b925050819055508080610ccd906112f0565b915050610c4a565b50600060028190555050505050565b6000600190505b60048160ff161015610d2f57600460008260ff1660ff1681526020019081526020016000206000610d1c9190610e97565b8080610d2790611841565b915050610ceb565b50565b60036000610d409190610e97565b565b600081519050919050565b60008060009054906101000a900473ffffffffffffffffffffffffffffffffffffffff169050816000806101000a81548173ffffffffffffffffffffffffffffffffffffffff021916908373ffffffffffffffffffffffffffffffffffffffff1602179055508173ffffffffffffffffffffffffffffffffffffffff168173ffffffffffffffffffffffffffffffffffffffff167f8be0079c531659141344cd1fd0a4f28419497f9722a3daafe3b4186f6b6457e060405160405180910390a35050565b600460008360ff1660ff168152602001908152602001600020819080600181540180825580915050600190039060005260206000200160009091909190916101000a81548173ffffffffffffffffffffffffffffffffffffffff021916908373ffffffffffffffffffffffffffffffffffffffff1602179055505050565b600033905090565b5080546000825590600052602060002090810190610eb59190610eb8565b50565b5b80821115610ed1576000816000905550600101610eb9565b5090565b600080fd5b600060ff82169050919050565b610ef081610eda565b8114610efb57600080fd5b50565b600081359050610f0d81610ee7565b92915050565b6000819050919050565b610f2681610f13565b8114610f3157600080fd5b50565b600081359050610f4381610f1d565b92915050565b60008060408385031215610f6057610f5f610ed5565b5b6000610f6e85828601610efe565b9250506020610f7f85828601610f34565b9150509250929050565b600073ffffffffffffffffffffffffffffffffffffffff82169050919050565b6000610fb482610f89565b9050919050565b610fc481610fa9565b82525050565b6000602082019050610fdf6000830184610fbb565b92915050565b610fee81610fa9565b8114610ff957600080fd5b50565b60008135905061100b81610fe5565b92915050565b60006020828403121561102757611026610ed5565b5b600061103584828501610ffc565b91505092915050565b61104781610f13565b82525050565b6000602082019050611062600083018461103e565b92915050565b60008115159050919050565b61107d81611068565b82525050565b60006020820190506110986000830184611074565b92915050565b6000602082840312156110b4576110b3610ed5565b5b60006110c284828501610efe565b91505092915050565b600080604083850312156110e2576110e1610ed5565b5b60006110f085828601610f34565b925050602061110185828601610efe565b9150509250929050565b60006020828403121561112157611120610ed5565b5b600061112f84828501610f34565b91505092915050565b6000819050919050565b600061115d61115861115384610f89565b611138565b610f89565b9050919050565b600061116f82611142565b9050919050565b600061118182611164565b9050919050565b61119181611176565b82525050565b60006020820190506111ac6000830184611188565b92915050565b600081519050919050565b600082825260208201905092915050565b6000819050602082019050919050565b6111e781610fa9565b82525050565b60006111f983836111de565b60208301905092915050565b6000602082019050919050565b600061121d826111b2565b61122781856111bd565b9350611232836111ce565b8060005b8381101561126357815161124a88826111ed565b975061125583611205565b925050600181019050611236565b5085935050505092915050565b6000602082019050818103600083015261128a8184611212565b905092915050565b7f4e487b7100000000000000000000000000000000000000000000000000000000600052603260045260246000fd5b7f4e487b7100000000000000000000000000000000000000000000000000000000600052601160045260246000fd5b60006112fb82610f13565b91507fffffffffffffffffffffffffffffffffffffffffffffffffffffffffffffffff820361132d5761132c6112c1565b5b600182019050919050565b7f4e487b7100000000000000000000000000000000000000000000000000000000600052601260045260246000fd5b600061137282610f13565b915061137d83610f13565b92508261138d5761138c611338565b5b828204905092915050565b600082825260208201905092915050565b7f706c6561736520426574206f6e6c79203120746f6b656e000000000000000000600082015250565b60006113df601783611398565b91506113ea826113a9565b602082019050919050565b6000602082019050818103600083015261140e816113d2565b9050919050565b600060408201905061142a6000830185610fbb565b6114376020830184610fbb565b9392505050565b60008151905061144d81610f1d565b92915050565b60006020828403121561146957611468610ed5565b5b60006114778482850161143e565b91505092915050565b7f596f75206d75737420617070726f766520746f6b656e73206669727374000000600082015250565b60006114b6601d83611398565b91506114c182611480565b602082019050919050565b600060208201905081810360008301526114e5816114a9565b9050919050565b60006060820190506115016000830186610fbb565b61150e6020830185610fbb565b61151b604083018461103e565b949350505050565b61152c81611068565b811461153757600080fd5b50565b60008151905061154981611523565b92915050565b60006020828403121561156557611564610ed5565b5b60006115738482850161153a565b91505092915050565b7f546f6b656e207472616e73666572206661696c65640000000000000000000000600082015250565b60006115b2601583611398565b91506115bd8261157c565b602082019050919050565b600060208201905081810360008301526115e1816115a5565b9050919050565b7f596f7520616c726561647920706c6179656420666f72207468697320726f756e60008201527f6400000000000000000000000000000000000000000000000000000000000000602082015250565b6000611644602183611398565b915061164f826115e8565b604082019050919050565b6000602082019050818103600083015261167381611637565b9050919050565b600061168582610f13565b915061169083610f13565b92508282019050808211156116a8576116a76112c1565b5b92915050565b60006040820190506116c36000830185610fbb565b6116d0602083018461103e565b9392505050565b7f6e6f7420656e6f75676820616c6c6f77616e6365000000000000000000000000600082015250565b600061170d601483611398565b9150611718826116d7565b602082019050919050565b6000602082019050818103600083015261173c81611700565b9050919050565b7f4f776e61626c653a206e6577206f776e657220697320746865207a65726f206160008201527f6464726573730000000000000000000000000000000000000000000000000000602082015250565b600061179f602683611398565b91506117aa82611743565b604082019050919050565b600060208201905081810360008301526117ce81611792565b9050919050565b7f4f776e61626c653a2063616c6c6572206973206e6f7420746865206f776e6572600082015250565b600061180b602083611398565b9150611816826117d5565b602082019050919050565b6000602082019050818103600083015261183a816117fe565b9050919050565b600061184c82610eda565b915060ff820361185f5761185e6112c1565b5b60018201905091905056fea26469706673582212209a42bc224734d4b39cd5bf56ff90ed954c6a217a54ac1920b4e8e5626dac210664736f6c63430008110033",
    "linkReferences": {},
    "deployedLinkReferences": {}
}